:020000040000FA
:0600000046EF45F012007E
:020006001200E6
:0600080002EF3FF01200C0
:02000E007FB2BF
:04001000FED7120005
:060018006EEF3FF0120044
:02001E000100DF
:0C002000BE8A0000CD0500002600000094
:04002C00D9CFE6FF43
:10003000E1CFD9FF020EE126896A800E926E400E52
:100040008A6E820E936E400E8B6EA30E946E0F011D
:100050005D6B0F015C6BC26AC16ABA0EC06EF19E25
:100060000F01200E5B6F8982DE6ADD6ADECF10F041
:10007000DDCF11F0D890115004E6E80E105C030EAD
:10008000115805E2DF2A010E01E3DB2AEFD79B6A54
:10009000700ED36E9B6A9B8CD3A4FED7916A899213
:1000A00004008982A68E080EB96E5F0EF66E890E68
:1000B000F76E0800F5507C6E670EF66E890EF76ECF
:1000C0000800F5507B6E260EBA6E030E0501E05D4A
:1000D00003E1800EA66E02D0900EA66EA49AAB8E9F
:1000E000080EA76E5F0EF66E890EF76E0800F550CB
:1000F0007D6E670EF66E890EF76E0800F550AF6ED6
:10010000260EAC6E900EAB6E9E9AF28C9D8A9F9AD4
:100110009E9AD08E0F015F6B0F015F875F990F0171
:100120005F8F0F015F95B798B698B8880F015F850C
:10013000800EB56E08012F511F0BF36EE00EB51443
:10014000F310B56E020EE15C02E2E16AE552E16E87
:10015000E552E7CFD9FF1200D9CFE6FFE1CFD9FFB3
:10016000030EE126F29EF29CB6980F015F975F990D
:100170005F85800EB56EDF6ADF501F0BF36EE00EF9
:10018000B514F310B56E400EE66E54EC45F0E55232
:10019000B450400B25E11F0EDF5C22E2DF2ADF5066
:1001A0001F0BF36EE00EB514F310B56E140EF36E64
:1001B000010EF3CFDBFF020EDB6A010EDBCF10F086
:1001C000DB06020EDBCF11F001E2DB06105011104E
:1001D00006E0100EE66E26EC45F0E552EED7D8D7D5
:1001E000DF5001E0DF06DF5001E0DF06DF5001E015
:1001F000DF06DF5001E0DF06DF5001E0DF06DF5001
:1002000001E0DF06DF5001E0DF06DF5001E0DF063E
:10021000DF5001E0DF0608012F511F0BF36EE00EE7
:10022000B514F310B56E0F015F875F99B798B68864
:10023000F28EF28CDF50106E030EE15C03E200D010
:10024000E16AE552E16E1050E552E7CFD9FF1200A6
:10025000450ED56ED58EF294F29AF194320ECD6E93
:10026000CD809E909D90B16EB180A192A092A292FD
:100270001200D9CFE6FFE1CFD9FF030EE126080136
:10028000580E2D6F2E6B306B316B326B336B100E43
:10029000346F0C0E356F0B0E366F130E2F6F386BDD
:1002A000B40E376F300E396F4D0E2C6F3A6BE66A15
:1002B00084EC3DF0E5520A0EF36E010EF3CFDBFF46
:1002C000020EDB6A010EDBCF10F0DB06020EDBCF85
:1002D00011F001E2DB061050111006E0100EE66E80
:1002E00026EC45F0E552EED7DF6A190EDF5C55E2E9
:1002F000DF50040DF3CFE9FFF4CFEAFF000EE9264B
:10030000040EEA22EE6AED6ADF50040DF3CFE9FF36
:10031000F4CFEAFF000EE926040EEA22020EE926D7
:10032000000EEA22EE6AED6ADF50060DF3CFE9FF18
:10033000F4CFEAFF650EE926040EEA22EF6ADF50E9
:10034000060DF3CFE9FFF4CFEAFF650EE926040EB0
:10035000EA22EE52EE6AED6ADF50060DF3CFE9FFB6
:10036000F4CFEAFF650EE926040EEA22030EE92621
:10037000000EEA22EE68ED68DF50060DF3CFE9FFCC
:10038000F4CFEAFF650EE926040EEA22050EE926FF
:10039000000EEA22EF6ADF2AA8D70501E56BECEC34
:1003A0003DF0DF6A190EDF5C42E2EA6ADF34FE0BE1
:1003B000EA36E96E000EE926060EEA22EE6AED6ADA
:1003C000DF50040DF3CFE9FFF4CFEAFF320EE92648
:1003D000060EEA22EF6ADF50040DF3CFE9FFF4CFF7
:1003E000EAFF320EE926060EEA22EE52EF6ADF50ED
:1003F000040DF3CFE9FFF4CFEAFF320EE926060E33
:10040000EA22020EE926000EEA22EF68DF50040D10
:10041000F3CFE9FFF4CFEAFF320EE926060EEA2217
:10042000030EE926000EEA22EF6ADF2ABBD7050198
:10043000E76BB7EC3DF00501B46B0501B56B050149
:10044000B66B0501B76B030EE15C02E2E16AE552AF
:10045000E16EE552E7CFD9FF12008B980501C00E7F
:10046000B96FBA6905016E0EBB6FBC69040EBB277C
:10047000000EBC23D58EF294F29AF194B180A19231
:10048000A092A292B798B688F28EF28C0501B26B58
:100490000501B36B1200050E0501EA5D05E12B0EA7
:1004A000E66E64EC33F0E5520501B32B060EB35D46
:1004B00001E3B36B1200D9CFE6FFE1CFD9FF040E01
:1004C000E1260501C5A50AD0FF0EE66E850EE66E93
:1004D000CBEC33F0E552E5520501C595F30E106EF5
:1004E000850E116E126A10C0E6FF11C0E6FF12C041
:1004F000E6FF600EE66E000EE66EF7EC44F0136E5B
:10050000050EE15E1350B3C5E6FF22EC3EF0E55266
:100510000001666FDE520A0EDD6E0501B351190D42
:10052000F3CFE9FFF4CFEAFF000EE926050EEA2239
:10053000030EEFCFDBFFDB50180805E2180EF36E59
:10054000030EF3CFDBFF080139A108D0030EF36ED1
:10055000020EF3CFDBFF030EDB0605D0010EF36EB8
:10056000020EF3CFDBFF020EDBCF10F0030EDB50E9
:10057000D880105468E3020EDB50060809E1080138
:100580003951010B05E0080EF36E020EF3CFDBFFCD
:100590000501B351190DF3CF10F0F4CF11F0000E97
:1005A0001026050E1122020EDB500F011024E96EF9
:1005B000000E1120EA6EEF50E66E07EC3EF0E552B9
:1005C000E66E010EDBCFF3FFDB2AF350EA6A600F21
:1005D000E96E000EEA22E552E750EF6E0501B351D5
:1005E000190DF3CF10F0F4CF11F0000E1026050E08
:1005F0001122020EDB500F011024E96E000E1120B3
:10060000EA6EEF50E66E22EC3EF0E552E66E010E29
:10061000DBCFF3FFDB2AF350EA6A600FE96E000ECE
:10062000EA22E552E750EF6E010EDBCFF3FFDB2A43
:10063000F350EA6A600FE96E000EEA22200EEF6EB8
:10064000020EDB2A90D7010EDB50EA6A600FE96EDA
:10065000000EEA22EF6A600EE66E000EE66E81EC96
:1006600033F0E552E552040EE15C02E2E16AE55244
:10067000E16EE552E7CFD9FF1200D9CFE6FFE1CF17
:10068000D9FF020EE1260801385103E0FF0E385D64
:1006900004E1200E37113C6F02D038C83CF834C852
:1006A0003DF835C83EF8FE0EDBCF3FF8FD0EDBCF40
:1006B00040F841814193419541974199418B418D4A
:1006C000418F426BFC0EDBCF43F8080E5C6F010ECE
:1006D000DB68DF6A5C51DF5C21E2DF50EA6A3C0FD5
:1006E000E96E080EEA22EF50E66EDF50EA6A0C0F60
:1006F000E96E080EEA22E552E750EF6EDF50EA6A33
:100700003C0FE96E080EEA22010EDBCFE7FFEF5047
:10071000E71A010EE7CFDBFFDF2ADCD7DF50EA6AFA
:100720003C0FE96E080EEA22010EDBCFEFFFDF502F
:10073000EA6A0C0FE96E080EEA22010EDBCFEFFF2A
:10074000DF2ADFCFE6FF00EC3AF0E552020EE15C73
:1007500002E2E16AE552E16EE552E7CFD9FF12000D
:10076000D9CFE6FFE1CFD9FF020EE126410E080105
:100770002D5D01E083D00501B2510501B35D06E1B5
:10078000300EE66E64EC33F0E55277D0B351190DBC
:10079000F3CFE9FFF4CFEAFF000EE926050EEA22C7
:1007A000010EEFCFDBFFDB50180803E2DE52180E1C
:1007B000DD6E080139A110D0030EDF6E010EDB5093
:1007C000FB0FE66E22EC3EF0E552E66E64EC33F091
:1007D000E552010EDB060BD0010EDF6EDBCFE6FF2C
:1007E00022EC3EF0E552E66E64EC33F0E552010E89
:1007F000DB50D880DF5441E3060EDF5C06E10801E0
:100800003951010B02E0080EDF6E0501B351190DDD
:10081000F3CF10F0F4CF11F0000E1026050E1122C8
:10082000DF500F011024E96E000E1120EA6EEF5028
:10083000E66E07EC3EF0E552E66E64EC33F0E5520E
:100840000501B351190DF3CF10F0F4CF11F0000EE4
:100850001026050E1122DF500F011024E96E000E44
:100860001120EA6EEF50E66E22EC3EF0E552E66EA5
:1008700064EC33F0E552DF2ABAD75AD00501B25101
:100880000501B35D05E1E66A64EC33F0E55250D052
:10089000B351190DF3CFE9FFF4CFEAFF000EE926BB
:1008A000050EEA22010EEFCFDBFFDB50180803E252
:1008B000DE52180EDD6E080139A10CD0030EDF6E7A
:1008C000010EDB50FB0FE66E64EC33F0E552010ED7
:1008D000DB0607D0010EDF6EDBCFE6FF64EC33F002
:1008E000E552010EDB50D880DF5422E3060EDF5CB8
:1008F00006E108013951010B02E0080EDF6E050127
:10090000B351190DF3CF10F0F4CF11F0000E1026F3
:10091000050E1122DF500F011024E96E000E112088
:10092000EA6EEF50E66E64EC33F0E552DF2AD9D779
:10093000020EE15C02E2E16AE552E16EE552E7CFC8
:10094000D9FF1200D9CFE6FFE1CFD9FF030EE12690
:100950000501B351190DF3CFE9FFF4CFEAFF000E03
:10096000E926050EEA22020EEFCFDBFFDB50180866
:1009700005E2180EF36E020EF3CFDBFFDE52030E1C
:10098000DD6E020EDB50F00FFC0FE66E64EC33F010
:10099000E552790EE66E64EC33F0E552020EDB06AA
:1009A000010EDBCF10F0020EDB50D880105422E392
:1009B000010EDB50060803E1DE52080EDD6E050174
:1009C000B351190DF3CF10F0F4CF11F0000E102633
:1009D000050E1122010EDB500F011024E96E000EEE
:1009E0001120EA6EEF50E66E64EC33F0E552010E32
:1009F000DB2AD6D7030EE15C02E2E16AE552E16E42
:100A0000E552E7CFD9FF1200D9CFE6FFE1CFD9FFFA
:100A1000E652FE0EDBCFE6FF64EC33F0E552DF6A10
:100A2000FE0EDB50D880DF540DE3DF50EA6A960FEC
:100A3000E96E050EEA22EF50E66E64EC33F0E55203
:100A4000DF2AEED7E552E552E7CFD9FF1200D9CF22
:100A5000E6FFE1CFD9FF170EE126D7EC32F0DF6ECB
:100A60000801055102E118EF23F00501E85102E009
:100A700019EC34F00501E951120A02E102EF23F00A
:100A80000C0A02E133EF21F00F0A02E1CEEF20F071
:100A9000010A02E187EF20F01E0A02E1AAEF1FF02F
:100AA000160A02E123EF1FF00F0A02E1D0EF1EF059
:100AB000010A02E17CEF1EF0030A02E1C6EF1DF01D
:100AC000010A02E172EF1DF0070A02E11EEF1DF0BC
:100AD0000A0A02E1B2EF14F0040A02E1F2EF13F0A5
:100AE000010A02E14BEF13F0070A02E1D9EF12F01D
:100AF000140A02E1E3EF11F0020A02E19EEF11F0A5
:100B0000060A02E111EF11F0010A02E196EF10F07E
:100B1000030A02E13DEF10F0010A02E121EF10F0BB
:100B20000F0A02E1F0EF0FF0010A02E18CEF0FF083
:100B3000030A02E170EF0FF0010A02E13FEF0FF04C
:100B4000080A02E11CEF0FF00F0A02E1E6EF0EF0D7
:100B5000190A02E177EF0EF0180A02E151EF0EF0E8
:100B6000220A02E149EF0EF0210A3FE0010A02E009
:100B700018EF23F0400EDF5C06E10501010EE96F7E
:100B80000501EB6B30D0A70EDF5C07E10501010E1C
:100B9000E96F0501010EEB6F26D0110EDF5C0BE152
:100BA000F29EF29C120EE66E100EE66E00EC78F0ED
:100BB000E552E55218D0120EDF5C06E16B0EE66ED0
:100BC00064EC33F0E5520FD0680EDF5C0CE1410EAF
:100BD00008012D5D08E1860EE66E890EE66ECBEC0F
:100BE00033F0E552E55218EF23F0DF507C0A02E1C2
:100BF0003BEF0EF00C0A02E142EF0DF0390A02E180
:100C0000EDEF0CF0200A02E1A5EF0CF00C0A02E176
:100C10008EEF0CF0010A02E17FEF0CF0070A02E10F
:100C200072EF0CF00F0A02E164EF0CF0040A01E12C
:100C30008ED33C0A01E1DAD2050A01E1D2D2200AC0
:100C400001E1BED2130A01E17BD2300A01E171D287
:100C5000200A01E169D2280A01E1EDD1200A01E16F
:100C600060D10D0A01E158D1200A01E150D1070AF3
:100C700001E146D1050A01E13ED1380A01E134D152
:100C8000180A01E12AD11F0A01E105D1130A01E185
:100C9000DDD0200A01E1D5D01D0A01E1CDD0080A3E
:100CA00001E1C3D00E0A01E1BBD0030A01E1B3D0D8
:100CB000070A01E1ABD0090A01E1A3D0580A01E11A
:100CC00083D0780A67E0220A60E0080A52E0B70A97
:100CD00049E0030A40E0010A35E0E60A26E0030A9B
:100CE00012E0040A06E0510A02E03FEF0EF047EF7F
:100CF0000EF0120EE66E100EE66E00EC78F0E55285
:100D0000E55247EF0EF00501010EEC6F0501010EF3
:100D1000ED6F0501E96B0501ED5105E16B0EE66E26
:100D200064EC33F0E55247EF0EF00501EC6B050182
:100D3000ED6B0501E96B6B0EE66E64EC33F0E5528A
:100D400047EF0EF00501C80EDE6F0501DD2B050132
:100D5000E96B47EF0EF005011E0EDE6F0501E96B32
:100D600047EF0EF005010A0EDE6F0501E96B47EF54
:100D70000EF039EC01F00501ED5105E16B0EE66E68
:100D800064EC33F0E55247EF0EF00501020EE96F17
:100D900047EF0EF00801410E2D6F08012E6B080180
:100DA000309D30C8B4F50801300E396F0501ED6B88
:100DB000ECC5E6FF84EC3DF0E5526B0EE66E64ECAC
:100DC00033F0E55247EF0EF00801580E2D6F080181
:100DD000020E2E6F0801308D30C8B4F50801310EB7
:100DE000396F0501020EEA6F0501010EEC6F050176
:100DF000010EED6FECC5E6FF84EC3DF0E55247EFE8
:100E00000EF005011A0EE96F47EF0EF00501030E13
:100E1000E96F47EF0EF00501040EE96F47EF0EF0A2
:100E20000501070EE96F47EF0EF005010A0EE96FA5
:100E30000801276B47EF0EF005011E0EE96F47EF23
:100E40000EF005010C0EE96F47EF0EF00801070EDA
:100E50000A6F08010B6B08010B510B2BEA6A0C0F90
:100E6000E96E080EEA22B40EEF6E08014B0E2A6FEF
:100E700008010B510B2BEA6A0C0FE96E080EEA22EF
:100E800034C8EFFF0801345108012A1B05010F0E79
:100E9000E96F47EF0EF008010B6B08010B510B2BAC
:100EA000EA6A0C0FE96E080EEA22B40EEF6E080132
:100EB0004B0E2A6F08010B510B2BEA6A0C0FE96EDF
:100EC000080EEA2234C8EFFF0801345108012A1B3A
:100ED00005011B0EE96F47EF0EF00501160EE96FD5
:100EE0000801276B47EF0EF00501130EE96F0801AB
:100EF000276B47EF0EF00501190EE96F47EF0EF073
:100F000005010B0EE96F0801276B47EF0EF0050195
:100F10000D0EE96F47EF0EF00501100EE96F47EF78
:100F20000EF00501E96B410E08012D5D01E081D055
:100F3000860EE66E890EE66ECBEC33F0E552E55296
:100F4000E50EE66E850EE66ECBEC33F0E552E5522B
:100F5000010EF36E020EF3CFDBFF020EDB50106EBC
:100F6000116AD890115004E6800E105C000E1158E2
:100F700058E2020EEA6ADB34FE0BEA36E96E000E36
:100F8000E926010EEA22EE52EF5048E0120EE66E1C
:100F9000860EE66ECBEC33F0E552E552020EDBCF67
:100FA000E6FF4AEC33F0E552200EE66E64EC33F0D7
:100FB000E552020EEA6ADB34FE0BEA36E96E000EF9
:100FC000E926010EEA22EF50E66E4AEC33F0E552D4
:100FD000200EE66E64EC33F0E552020EEA6ADB3472
:100FE000FE0BEA36E96E000EE926010EEA22EE5209
:100FF000EF50E66E4AEC33F0E552200EE66E64ECFC
:1010000033F0E552020EDB50EA6A000FE96E070E7C
:10101000EA22EF50E66E4AEC33F0E552020EDB2A8C
:101020009CD7120EE66E860EE66ECBEC33F0E552E0
:10103000E55247EF0EF00501E96B410E08012D5D09
:1010400071E1860EE66E890EE66ECBEC33F0E5526A
:10105000E552E50EE66E850EE66ECBEC33F0E5521A
:10106000E552020EDB6A020EDB50106E116AD89058
:10107000115004E6800E105C000E11584BE2120E67
:10108000E66E860EE66ECBEC33F0E552E552020ECC
:10109000DBCFE6FF4AEC33F0E552200EE66E64EC5F
:1010A00033F0E552020EEA6ADB34FE0BEA36E96EF3
:1010B000000EE926010EEA22EF50E66E4AEC33F00C
:1010C000E552200EE66E64EC33F0E552020EEA6A59
:1010D000DB34FE0BEA36E96E000EE926010EEA2249
:1010E000EE52EF50E66E4AEC33F0E552200EE66E1B
:1010F00064EC33F0E552020EDB50EA6A000FE96E51
:10110000070EEA22EF50E66E4AEC33F0E552020E8B
:10111000DB2AA9D7120EE66E860EE66ECBEC33F014
:10112000E552E55247EF0EF005011F0EE96F47EF5C
:101130000EF00501010EEA6F0501E96B47EF0EF0B5
:10114000040EDB6A060EF36E040EDBCFF4FFF350E1
:10115000F45C24E2020EDB6A190EF36E020EDBCFA2
:10116000F4FFF350F45C17E2040EDB50190DF3CFDB
:1011700010F0F4CF11F0000E1026050E1122020E11
:10118000DB500F011024E96E000E1120EA6EEF6AA9
:10119000020EDB2AE1D7040EDB2AD4D70501B26B9D
:1011A0000501B36B0501B86B0501E96B0501ED5154
:1011B00005E16B0EE66E64EC33F0E55247EF0EF09E
:1011C0000501E96B6B0EE66E64EC33F0E552DA0E66
:1011D000E66E850EE66ECBEC33F0E552E55247EF56
:1011E0000EF00501120EE96F47EF0EF02CEC32F015
:1011F000E76E010EE7CFDBFF010EDB504B0826E167
:1012000008019A0E0C6F0801BC0E0D6F0801DE0E6E
:101210000E6F0801F00E0F6F0801120E106F08011B
:10122000340E116F0801BB0E126F0801CD0E136F43
:10123000CD0EE66E850EE66ECBEC33F0E552E55250
:10124000080EE66E00EC3AF0E5527DD0010EDB5060
:10125000530836E10501040EEA6F08019A0E0C6F7F
:101260000801BC0E0D6F0801DE0E0E6F0801F00EB6
:101270000F6F0801120E106F0801340E116F080174
:10128000560E126F0801780E136FC00EE66E850EB3
:10129000E66ECBEC33F0E552E552080EE66E00EC5C
:1012A0003AF0E5522E0EE66E64EC33F0E552C80ECD
:1012B0000801076F086B0501B26B0501B36B43D0E2
:1012C000010EDB5054082EE1AD0EE66E850EE66E83
:1012D000CBEC33F0E552E55208019A0E0C6F080191
:1012E000BC0E0D6F0801DE0E0E6F0801F00E0F6FC1
:1012F0000801120E106F0801340E116F0801EF0E75
:10130000126F0801010E136F080EE66E00EC3AF042
:10131000E552930EE66E850EE66ECBEC33F0E552A9
:10132000E55211D0010EDB50730804E10501050EF2
:10133000EA6F09D0450EE66E64EC33F0E552050124
:10134000E96B47EF0EF00501E96B47EF0EF0410E38
:1013500008012D5D01E0B0D2860EE66E890EE66EC4
:10136000CBEC33F0E552E552830EE66E850EE66E69
:10137000CBEC33F0E552E552600EE66E000EE66E01
:1013800008012F51E66EE66A21EC43F0E552E55282
:10139000E552E552600EE66E000EE66E81EC33F02B
:1013A000E552E552710EE66E850EE66ECBEC33F03B
:1013B000E552E552600EE66E850EE66ECBEC33F03C
:1013C000E552E552300E08012E25E66E64EC33F04E
:1013D000E5524F0EE66E850EE66ECBEC33F0E5522D
:1013E000E55237C8E6FF07EC3EF0E552E66E64ECE6
:1013F00033F0E55237C8E6FF22EC3EF0E552E66EE8
:1014000064EC33F0E5523E0EE66E850EE66ECBECF4
:1014100033F0E552E55236C8E6FF07EC3EF0E55200
:10142000E66E64EC33F0E55236C8E6FF22EC3EF09F
:10143000E552E66E64EC33F0E552270EE66E850E5B
:10144000E66ECBEC33F0E552E552300E0801301574
:1014500009E1230EE66E850EE66ECBEC33F0E55225
:10146000E55239D0080130A909D0110EE66E850E7B
:10147000E66ECBEC33F0E552E5520BD0080130AB11
:1014800008D0FF0EE66E840EE66ECBEC33F0E5522C
:10149000E5520F0E08013015300FE66E64EC33F0A4
:1014A000E552F30EE66E840EE66ECBEC33F0E552B9
:1014B000E55231C8E6FF07EC3EF0E552E66E64EC1B
:1014C00033F0E55231C8E6FF22EC3EF0E552E66E1D
:1014D00064EC33F0E552DC0EE66E840EE66ECBEC87
:1014E00033F0E552E552300E0801321509E1230EC2
:1014F000E66E850EE66ECBEC33F0E552E55239D060
:10150000080132A909D0110EE66E850EE66ECBEC0D
:1015100033F0E552E5520BD0080132AB08D0FF0E94
:10152000E66E840EE66ECBEC33F0E552E5520F0E1C
:1015300008013215300FE66E64EC33F0E552F30E1D
:10154000E66E840EE66ECBEC33F0E552E55233C81E
:10155000E6FF07EC3EF0E552E66E64EC33F0E55250
:1015600033C8E6FF22EC3EF0E552E66E64EC33F061
:10157000E552C10EE66E840EE66ECBEC33F0E5521A
:10158000E55239C8E6FF64EC33F0E552AC0EE66E86
:10159000840EE66ECBEC33F0E552E552600EE66E5B
:1015A000000EE66EE1C5E6FFE2C5E6FF21EC43F082
:1015B000E552E552E552E552600EE66E000EE66E2B
:1015C00081EC33F0E552E552970EE66E840EE66E3E
:1015D000CBEC33F0E552E552600EE66E000EE66E9F
:1015E000E3C5E6FFE4C5E6FF21EC43F0E552E55232
:1015F000E552E552600EE66E000EE66E81EC33F0C9
:10160000E552E552820EE66E840EE66ECBEC33F0C8
:10161000E552E552600EE66E000EE66EEFC5E6FF9F
:10162000F0C5E6FF21EC43F0E552E552E552E55204
:10163000600EE66E000EE66E81EC33F0E552E55288
:101640006D0EE66E840EE66ECBEC33F0E552E5529D
:10165000600EE66E000EE66EF1C5E6FFF2C5E6FF2F
:1016600021EC43F0E552E552E552E552600EE66E9C
:10167000000EE66E81EC33F0E552E552550EE66E53
:10168000840EE66ECBEC33F0E552E552600EE66E6A
:10169000000EE66E0501DD51E66EE66A21EC43F0D0
:1016A000E552E552E552E552600EE66E000EE66E3A
:1016B00081EC33F0E552E5520501E85108E0420EB5
:1016C000E66E840EE66ECBEC33F0E552E5522A0E60
:1016D000E66E840EE66ECBEC33F0E552E552600E1A
:1016E000E66E000EE66EB8C510F0116A10BE116805
:1016F00010C0E6FF11C0E6FF21EC43F0E552E552D1
:10170000E552E552600EE66E000EE66E81EC33F0B7
:10171000E552E552190EE66E840EE66ECBEC33F020
:10172000E552E5523BC8E6FF07EC3EF0E552E66EB7
:1017300064EC33F0E5523BC8E6FF22EC3EF0E552A4
:10174000E66E64EC33F0E552FF0EE66E830EE66E55
:10175000CBEC33F0E552E55208013A51040A38E087
:10176000070A17E0020A0CE0010A01E050D0FC0E63
:10177000E66E830EE66ECBEC33F0E552E55247D0D1
:10178000F30EE66E830EE66ECBEC33F0E552E552D7
:101790003ED0E70EE66E830EE66ECBEC33F0E552FC
:1017A000E552600EE66E000EE66E0501E551E66E4E
:1017B000E66A21EC43F0E552E552E552E552600E4F
:1017C000E66E000EE66E81EC33F0E552E5521FD076
:1017D000DD0EE66E830EE66ECBEC33F0E552E5529D
:1017E000600EE66E000EE66E0501E551E66EE66AF5
:1017F00021EC43F0E552E552E552E552600EE66E0B
:10180000000EE66E81EC33F0E552E55200D0120E88
:10181000E66E860EE66ECBEC33F0E552E55205013E
:10182000E05108E1CD0EE66E830EE66ECBEC33F0B0
:10183000E552E5520501E00508E1BC0EE66E830EB7
:10184000E66ECBEC33F0E552E552020E0501E05DA9
:1018500008E1A50EE66E830EE66ECBEC33F0E552A2
:10186000E552030E0501E05D08E18E0EE66E830E83
:10187000E66ECBEC33F0E552E5520501EC5108E0A1
:10188000710EE66E830EE66ECBEC33F0E552E55258
:101890000501ED5108E0530EE66E830EE66ECBECCB
:1018A00033F0E552E552120EE66E860EE66ECBEC94
:1018B00033F0E552E55205D0450EE66E64EC33F0A8
:1018C000E5520501E96BE3D10501ED5105E16B0E30
:1018D000E66E64EC33F0E5520501020EEA6F050195
:1018E000E96BD5D10501EA6B0501ED5105E16B0E00
:1018F000E66E64EC33F0E5520501E96BC8D1410EA8
:1019000008012D5D03E19AEC3BF005D0450EE66E33
:1019100064EC33F0E5520501E96BB9D1410E0801E1
:101920002D5D0BE1100EE66E000EE66EE66A88ECA9
:101930003CF0E552E552E55205D0450EE66E64EC0A
:1019400033F0E5520501E96BA2D1410E08012D5D8E
:101950003CE1ACEC00F008012F6F6B0EE66E64EC1E
:1019600033F0E552430EE66E830EE66ECBEC33F0B9
:10197000E552E552600EE66E000EE66E08012F514C
:10198000E66EE66A21EC43F0E552E552E552E55297
:10199000600EE66E000EE66E81EC33F0E552E55225
:1019A000120EE66E860EE66ECBEC33F0E552E55293
:1019B000E66A84EC3DF0E55208012F511F0BF36EEF
:1019C000E00EB514F310B56E05D0450EE66E64EC6E
:1019D00033F0E5520501E96B5AD1410E08012D5D46
:1019E00049E12CEC32F0E76E030EE7CFDBFF030E8C
:1019F000DB502D0806E108012F07E66A84EC3DF074
:101A0000E552030EDB502B0806E108012F2BE66A96
:101A100084EC3DF0E55208012F511F0BF36EE00EF0
:101A2000B514F310B56E310EE66E830EE66ECBEC98
:101A300033F0E552E552600EE66E000EE66E0801E8
:101A40002F51E66EE66A21EC43F0E552E552E5528D
:101A5000E552600EE66E000EE66E81EC33F0E55264
:101A6000E552120EE66E860EE66ECBEC33F0E552D2
:101A7000E55205D0450EE66E64EC33F0E552050103
:101A8000E96B05D10501B35103E10501060EB36F02
:101A90000501B3070501B351190DF3CFE9FFF4CFE9
:101AA000EAFF000EE926050EEA22090EEF6E080194
:101AB000385104E0FF0E0801385D17E1200E0801DF
:101AC0003711E66E0501B351190DF3CFE9FFF4CFDD
:101AD000EAFF000EE926050EEA22010EE926000EB5
:101AE000EA22E552E750EF6E11D00501B351190D0E
:101AF000F3CFE9FFF4CFEAFF000EE926050EEA2254
:101B0000010EE926000EEA2238C8EFFF0501B351A5
:101B1000190DF3CFE9FFF4CFEAFF000EE926050E19
:101B2000EA22020EE926000EEA22100EEF6E0501EF
:101B3000B351190DF3CFE9FFF4CFEAFF000EE92608
:101B4000050EEA22030EE926000EEA220E0EEF6EC3
:101B50000501B351190DF3CFE9FFF4CFEAFF000EF1
:101B6000E926050EEA22040EE926000EEA220B0EF3
:101B7000EF6E0501B351190DF3CFE9FFF4CFEAFF82
:101B8000000EE926050EEA22050EE926000EEA22DD
:101B90001D0EEF6E0501B351190DF3CFE9FFF4CF20
:101BA000EAFF000EE926050EEA22060EE926000EDF
:101BB000EA22E10EEF6E0501B351190DF3CFE9FFF3
:101BC000F4CFEAFF000EE926050EEA22070EE92609
:101BD000000EEA22EF6A0801065126E10501B35121
:101BE000190DF3CFE9FFF4CFEAFF000EE926050E49
:101BF000EA22080EE926000EEA22810EEF6E0501A8
:101C0000B351190DF3CFE9FFF4CFEAFF000EE92637
:101C1000050EEA22090EE926000EEA22230EEF6ED7
:101C20000801010E066F24D00501B351190DF3CF41
:101C3000E9FFF4CFEAFF000EE926050EEA22080EBE
:101C4000E926000EEA22800EEF6E0501B351190D50
:101C5000F3CFE9FFF4CFEAFF000EE926050EEA22F2
:101C6000090EE926000EEA22220EEF6E0801066B2D
:101C70000501E96B0CD00501200EE96F08D0450E77
:101C8000E66E64EC33F0E5520501E96B00D018EF25
:101C900023F07C0EDF5C01E1FF000501E96B18EF2A
:101CA00023F0410EDF5C06E0580EDF5C03E0480ED7
:101CB000DF5C14E1DF5008012D5D07E0DFCF2DF878
:101CC000ECC5E6FF84EC3DF0E5520501ED5105E180
:101CD0006B0EE66E64EC33F0E55205D0450EE66E11
:101CE00064EC33F0E5520501E96B18EF23F0580E70
:101CF00008012D5D07E0480E08012D5D03E0050198
:101D0000EB0515E1DF5008013B5D06E0DFCF3BF856
:101D1000E66A84EC3DF0E5520501ED5105E16B0EFC
:101D2000E66E64EC33F0E5520501E96B4DD0300E00
:101D3000DF5C08E3DF50390805E3300EDF5C0801A3
:101D4000256F1AD0410EDF5C09E3DF50460806E339
:101D5000410EDF5C0A0F0801256F0ED0610EDF5CBB
:101D600009E3DF50660806E3610EDF5C0A0F080135
:101D7000256F02D00801256B080127511CE00801DE
:101D80002551080126270801265108013B5D06E080
:101D900026C83BF8E66A84EC3DF0E5520501ED51BA
:101DA00005E16B0EE66E64EC33F0E5520501E96B7C
:101DB0000801276B09D025C826F808012639F00B41
:101DC000266F0801010E276F18EF23F0300EDF5C3D
:101DD0002AE3DF50370827E3300EDF5C08012E5D71
:101DE00019E0300EDF5C08012E6F020E08012E157F
:101DF00005E10F0E08013015010803E20801308DDE
:101E000002D00801309DECC5E6FF84EC3DF0E552C0
:101E100030C8B4F50501ED5105E16B0EE66E64ECDA
:101E200033F0E55205D0450EE66E64EC33F0E55232
:101E30000501E96B18EF23F0300EDF5C17E3DF508C
:101E4000310814E3DF500801395D07E0DFCF39F8CE
:101E5000ECC5E6FF84EC3DF0E5520501ED5105E1EE
:101E60006B0EE66E64EC33F0E55205D0450EE66E7F
:101E700064EC33F0E5520501E96B18EF23F0490EED
:101E8000DF5C03E0690EDF5C04E10801100E306FD7
:101E900022D0450EDF5C03E0650EDF5C04E1080143
:101EA000200E306F18D00801305109E00801306B66
:101EB0000501B46BECC5E6FF84EC3DF0E55205018D
:101EC000ED5105E16B0EE66E64EC33F0E552050171
:101ED000E96B18EF23F00501050EE96F18EF23F009
:101EE000300EDF5C09E3DF50390806E3300EDF5EB9
:101EF000DF500801302709D0450EE66E64EC33F060
:101F0000E5520501E96B18EF23F00801276B050185
:101F1000060EE96F18EF23F0300EDF5C08E3DF50A8
:101F2000390805E3300EDF5C0801256F1AD0410E39
:101F3000DF5C09E3DF50460806E3410EDF5C0A0F71
:101F40000801256F0ED0610EDF5C09E3DF506608E3
:101F500006E3610EDF5C0A0F0801256F02D008015D
:101F6000256B0801275131E0020E08012E1505E10D
:101F70000F0E08013015010802E20801308D08013A
:101F800025510801262708010B510B2BEA6A0C0F7B
:101F9000E96E080EEA2226C8EFFF26C831F8ECC524
:101FA000E6FF84EC3DF0E55230C8B4F531C8B5F534
:101FB0000501ED5105E16B0EE66E64EC33F0E55280
:101FC0000501E96B0801276B09D025C826F808012F
:101FD0002639F00B266F0801010E276F18EF23F04A
:101FE000490EDF5C03E0690EDF5C04E10801100EBE
:101FF000326F22D0450EDF5C03E0650EDF5C04E14A
:102000000801200E326F18D00801325109E0080192
:10201000326B0501B66BECC5E6FF84EC3DF0E55292
:102020000501ED5105E16B0EE66E64EC33F0E5520F
:102030000501E96B18EF23F00501080EE96F18EFB1
:1020400023F0300EDF5C09E3DF50390806E3300E81
:10205000DF5EDF500801322709D0450EE66E64ECE2
:1020600033F0E5520501E96B18EF23F00801276B07
:102070000501090EE96F18EF23F0300EDF5C08E36D
:10208000DF50390805E3300EDF5C0801256F1AD0F8
:10209000410EDF5C09E3DF50460806E3410EDF5CDA
:1020A0000A0F0801256F0ED0610EDF5C09E3DF50D7
:1020B000660806E3610EDF5C0A0F0801256F02D097
:1020C0000801256B0801275126E008012551080168
:1020D000262708010B510B2BEA6A0C0FE96E080E3C
:1020E000EA2226C8EFFF26C833F8ECC5E6FF84ECE9
:1020F0003DF0E55232C8B6F533C8B7F50501ED51EC
:1021000005E16B0EE66E64EC33F0E5520501E96B18
:102110000801276B09D025C826F808012639F00BDD
:10212000266F0801010E276F18EF23F0580E0801E3
:102130002D5D07E0480E08012D5D03E00501EB056C
:1021400016E1DF500801365D07E0DFCF36F8ECC559
:10215000E6FF84EC3DF0E5520501ED5105E16B0E23
:10216000E66E64EC33F0E5520501E96B58D0300EB1
:10217000DF5C08E3DF50390805E3300EDF5C08015F
:10218000256F1AD0410EDF5C09E3DF50460806E3F5
:10219000410EDF5C0A0F0801256F0ED0610EDF5C77
:1021A00009E3DF50660806E3610EDF5C0A0F0801F1
:1021B000256F02D00801256B0801275127E008018F
:1021C00025510801262708010B510B2BEA6A0C0F39
:1021D000E96E080EEA2226C8EFFF08012651080121
:1021E000365D07E026C836F8ECC5E6FF84EC3DF026
:1021F000E5520501ED5105E16B0EE66E64EC33F03E
:10220000E5520501E96B0801276B09D025C826F8BE
:1022100008012639F00B266F0801010E276F18EF11
:1022200023F0580E08012D5D07E0480E08012D5DD2
:1022300003E00501EB051FE1DF500801385D10E008
:10224000DFCF38F8ECC5E6FF84EC3DF0E55208013D
:10225000385106E0FF0E0801385D02E038C837F853
:102260000501ED5105E16B0EE66E64EC33F0E552CD
:102270000501E96B61D0300EDF5C08E3DF503908FF
:1022800005E3300EDF5C0801256F1AD0410EDF5CDC
:1022900009E3DF50460806E3410EDF5C0A0F080140
:1022A000256F0ED0610EDF5C09E3DF50660806E3A0
:1022B000610EDF5C0A0F0801256F02D00801256B53
:1022C0000801275130E0080125510801262708019F
:1022D0000B510B2BEA6A0C0FE96E080EEA2226C896
:1022E000EFFF080126510801385D10E026C838F8D4
:1022F0000801385106E0FF0E0801385D02E038C8D9
:1023000037F8ECC5E6FF84EC3DF0E5520501ED51F0
:1023100005E16B0EE66E64EC33F0E5520501E96B06
:102320000801276B09D025C826F808012639F00BCB
:10233000266F0801010E276F18EF23F0580E0801D1
:102340002D5D07E0480E08012D5D03E00501EB055A
:1023500003E1DFCF0AF82CD0310EDF5C08E3DF5059
:10236000390805E3300EDF5C08010A6F21D0410E09
:10237000DF5C09E3DF50460806E3410EDF5C0A0F2D
:1023800008010A6F15D0610EDF5C09E3DF506608B3
:1023900006E3610EDF5C0A0F08010A6F09D0450EE3
:1023A000E66E64EC33F0E5520501E96B18EF23F0BB
:1023B00008010B6B0801276B0801096905010E0E66
:1023C000E96F18EF23F0580E08012D5D03E00501B9
:1023D000EB0557E108010B510B2BEA6A0C0FE96E74
:1023E000080EEA22DFCFEFFFDF5008012A1B050E9F
:1023F00008010B5D17E108010B510B2BEA6A0C0F6A
:10240000E96E080EEA22E10EEF6EE10E08012A1BCA
:1024100008010B510B2BEA6A0C0FE96E080EEA2239
:10242000EF6A2ED008010A510801D8800B5528E226
:1024300008010B510B2BEA6A0C0FE96E080EEA2219
:102440002AC8EFFF090E08010B5D0BE113C8E6FF78
:1024500010C8E6FF0FC8E6FF92EC2CF0E552E552FB
:10246000E5520BC8E6FF00EC3AF0E5520501ED51EC
:1024700005E16B0EE66E64EC33F0E5520501E96BA5
:1024800096D0300EDF5C08E3DF50390805E3300EEC
:10249000DF5C0801256F21D0410EDF5C09E3DF50CE
:1024A000460806E3410EDF5C0A0F0801256F15D0D0
:1024B000610EDF5C09E3DF50660806E3610EDF5C56
:1024C0000A0F0801256F09D0450EE66E64EC33F063
:1024D000E5520501E96B18EF23F0080127515EE092
:1024E000080125510801262708010B510B2BEA6A28
:1024F0000C0FE96E080EEA2226C8EFFF08012651EC
:1025000008012A1B050E08010B5D17E108010B519C
:102510000B2BEA6A0C0FE96E080EEA22E10EEF6E51
:10252000E10E08012A1B08010B510B2BEA6A0C0F64
:10253000E96E080EEA22EF6A2ED008010A5108015E
:10254000D8800B5528E208010B510B2BEA6A0C0FBF
:10255000E96E080EEA222AC8EFFF090E08010B5D9A
:102560000BE113C8E6FF10C8E6FF0FC8E6FF92ECC8
:102570002CF0E552E552E5520BC8E6FF00EC3AF0CC
:10258000E5520501ED5105E16B0EE66E64EC33F0AA
:10259000E5520501E96B0801276B09D025C826F82B
:1025A00008012639F00B266F0801010E276F18EF7E
:1025B00023F0580E08012D5D03E00501EB0515E140
:1025C00008010B510B2BEA6A0C0FE96E080EEA2288
:1025D000DFCFEFFFDF5008012A1B050E08010B5D5E
:1025E00003E105011C0EE96F54D0300EDF5C08E3F7
:1025F000DF50390805E3300EDF5C0801256F21D07C
:10260000410EDF5C09E3DF50460806E3410EDF5C64
:102610000A0F0801256F15D0610EDF5C09E3DF505A
:10262000660806E3610EDF5C0A0F0801256F09D01A
:10263000450EE66E64EC33F0E5520501E96B18EFE8
:1026400023F0080127511CE0080125510801262725
:1026500008010B510B2BEA6A0C0FE96E080EEA22F7
:1026600026C8EFFF0801265108012A1B050E0801A4
:102670000B5D03E105011C0EE96F0801276B09D012
:1026800025C826F808012639F00B266F0801010E2F
:10269000276F18EF23F0580E08012D5D03E00501A8
:1026A000EB052EE1DF50110802E2110EDF6E060E7F
:1026B000DF2408010A6FE00EDF10E66E08010B51FF
:1026C000EA6A0C0FE96E080EEA22E552E750EF6E57
:1026D00008010B510B2BEA6A0C0FE96E080EEA2277
:1026E000EF5008012A1B08010B510B2BEA6A0C0F53
:1026F000E96E080EEA22EF6A05011D0EE96F70D03F
:10270000300EDF5C08E3DF50390805E3300EDF5C94
:102710000801256F21D0410EDF5C09E3DF50460838
:1027200006E3410EDF5C0A0F0801256F15D0610E2C
:10273000DF5C09E3DF50660806E3610EDF5C0A0F29
:102740000801256F09D0450EE66E64EC33F0E552C2
:102750000501E96B18EF23F00801275138E0080163
:1027600025510801262708012651110803E2080116
:10277000110E266F060E0801262508010A6FE00ECD
:1027800008012611E66E08010B51EA6A0C0FE96E8A
:10279000080EEA22E552E750EF6E08010B510B2BB1
:1027A000EA6A0C0FE96E080EEA22EF5008012A1BB4
:1027B00008010B510B2BEA6A0C0FE96E080EEA2296
:1027C000EF6A0801276B05011D0EE96F09D025C8C6
:1027D00026F808012639F00B266F0801010E276F35
:1027E00018EF23F0580E08012D5D03E00501EB05FD
:1027F0003CE108010B510B2BEA6A0C0FE96E080E45
:10280000EA22DFCFEFFFDF5008012A1B08010A513F
:102810000801D8800B5528E208010B510B2BEA6AFE
:102820000C0FE96E080EEA222AC8EFFF090E080114
:102830000B5D0BE113C8E6FF10C8E6FF0FC8E6FF0B
:1028400092EC2CF0E552E552E5520BC8E6FF00ECA5
:102850003AF0E5520501ED5105E16B0EE66E64ECD0
:1028600033F0E5520501E96B7BD0300EDF5C08E305
:10287000DF50390805E3300EDF5C0801256F21D0F9
:10288000410EDF5C09E3DF50460806E3410EDF5CE2
:102890000A0F0801256F15D0610EDF5C09E3DF50D8
:1028A000660806E3610EDF5C0A0F0801256F09D098
:1028B000450EE66E64EC33F0E5520501E96B18EF66
:1028C00023F00801275143E008012551080126277C
:1028D00008010B510B2BEA6A0C0FE96E080EEA2275
:1028E00026C8EFFF0801265108012A1B08010A51DA
:1028F0000801D8800B5528E208010B510B2BEA6A1E
:102900000C0FE96E080EEA222AC8EFFF090E080133
:102910000B5D0BE113C8E6FF10C8E6FF0FC8E6FF2A
:1029200092EC2CF0E552E552E5520BC8E6FF00ECC4
:102930003AF0E5520501ED5105E16B0EE66E64ECEF
:1029400033F0E5520501E96B0801276B09D025C872
:1029500026F808012639F00B266F0801010E276FB3
:1029600018EF23F0DF50630A02E1CBEF1CF05A0AA4
:1029700002E1D1EF1BF0010A02E189EF19F00F0A21
:1029800002E16EEF19F0010A01E195D2030A01E1BB
:10299000E8D0050A01E1CED0010A01E1CBD0020A5C
:1029A00001E1C8D0070A01E1C5D0060A02E014EF30
:1029B0001DF0010EDB6A020EDB6A0501E551F36EC4
:1029C000010EDBCFF4FFF350F45C01E3A7D0010E5E
:1029D000DB50040DF3CFE9FFF4CFEAFF000EE92648
:1029E000040EEA22000ED880EE54000EED5401E3EE
:1029F00092D0010EDB50040DF3CFE9FFF4CFEAFFD4
:102A0000000EE926040EEA22020EE926000EEA2252
:102A1000EECF10F0EFCF11F0010EDB50060DF3CF2B
:102A2000E9FFF4CFEAFF650EE926040EEA22EE5232
:102A3000EECF12F0EFCF13F01250105C135011587C
:102A400023E2010EDB50060DF3CFE9FFF4CFEAFFDE
:102A5000650EE926040EEA22EE52EECF10F0EFCF1B
:102A600011F0010EDB50040DF3CFE9FFF4CFEAFFC4
:102A7000000EE926040EEA22020EE926000EEA22E2
:102A800010C0EEFF11C0EDFF080EE66E010EDB5028
:102A9000040DF3CFE9FFF4CFEAFF000EE926040EA0
:102AA000EA22EECFE6FFEFCFE6FF87EC3EF0E552FD
:102AB000E552E5520701806F010EDB50040DF3CFA4
:102AC000E9FFF4CFEAFF000EE926040EEA22020E27
:102AD000E926000EEA22000ED880EE54000EED54D6
:102AE0000DE280C7E9FFEA6AE9BEEA68000EE9265E
:102AF000070EEA22090EEF6E020EDB2A010EDB50F2
:102B0000060DF3CFE9FFF4CFEAFF650EE926040EC8
:102B1000EA22800EEF6E010EDB2A4FD7B7EC3DF0B4
:102B2000ECEC3DF0020EDB5003E1300EDF6E02D024
:102B3000330EDF6E300EDF5C08013A5D08E0300EC8
:102B4000DF5C08013A6FE66A84EC3DF0E55205016E
:102B5000ED5105E16B0EE66E64EC33F0E5521AEFD1
:102B60001DF0410E08012D5D01E0A3D1200EE66E9F
:102B7000830EE66ECBEC33F0E552E552010EDB6AD4
:102B80000501E551F36E010EDBCFF4FFF350F45C69
:102B900001E31CD1010EDB50040DF3CFE9FFF4CFAC
:102BA000EAFF000EE926040EEA22EE50ED1001E1E4
:102BB000F1D01C0EE66E830EE66ECBEC33F0E552E0
:102BC000E552010EDB50040DF3CFE9FFF4CFEAFF2D
:102BD000000EE926040EEA22EF50E66E4AEC33F0CE
:102BE000E552010EDB50040DF3CFE9FFF4CFEAFF0D
:102BF000000EE926040EEA22EE52EF50E66E4AEC91
:102C000033F0E552150EE66E830EE66ECBEC33F034
:102C1000E552E552600EE66E000EE66E010EDB50E8
:102C2000040DF3CFE9FFF4CFEAFF000EE926040E0E
:102C3000EA22020EE926000EEA22EECFE6FFEFCFEF
:102C4000E6FF21EC43F0E552E552E552E552600E15
:102C5000E66E000EE66E81EC33F0E552E5520F0EA3
:102C6000E66E830EE66ECBEC33F0E552E552600E75
:102C7000E66E000EE66E010EDB50060DF3CFE9FFA7
:102C8000F4CFEAFF650EE926040EEA22EE52EECFFB
:102C9000E6FFEFCFE6FF21EC43F0E552E552E552C7
:102CA000E552600EE66E000EE66E81EC33F0E55202
:102CB000E552090EE66E830EE66ECBEC33F0E5527C
:102CC000E552010EDB50060DF3CFE9FFF4CFEAFF2A
:102CD000650EE926040EEA22EF50E66E4AEC33F068
:102CE000E552030EE66E830EE66ECBEC33F0E55252
:102CF000E552600EE66E000EE66E010EDB50060D2C
:102D0000F3CFE9FFF4CFEAFF650EE926040EEA22CD
:102D1000030EE926000EEA22EECFE6FFEFCFE6FF34
:102D200021EC43F0E552E552E552E552600EE66EC5
:102D3000000EE66E81EC33F0E552E552FD0EE66ED4
:102D4000820EE66ECBEC33F0E552E552600EE66E95
:102D5000000EE66E010EDB50060DF3CFE9FFF4CF57
:102D6000EAFF650EE926040EEA22050EE926000EAA
:102D7000EA22EF50E66EE66A21EC43F0E552E552B6
:102D8000E552E552600EE66E000EE66E81EC33F021
:102D9000E552E5520A0EF36E0D0EF3CFDBFF0E0E79
:102DA000DB6A0D0EDBCF10F0DB060E0EDBCF11F071
:102DB00001E2DB061050111006E0100EE66E26EC64
:102DC00045F0E552EED7010EDB2ADAD6F10EE66EBB
:102DD000820EE66ECBEC33F0E552E552010EDB6A73
:102DE0000501E751F36E010EDBCFF4FFF350F45C05
:102DF00058E2010EEA6ADB34FE0BEA36E96E000E99
:102E0000E926060EEA22EE50ED102FE01C0EE66ECB
:102E1000830EE66ECBEC33F0E552E552010EEA6A22
:102E2000DB34FE0BEA36E96E000EE926060EEA22D6
:102E3000EF50E66E4AEC33F0E552010EEA6ADB34FD
:102E4000FE0BEA36E96E000EE926060EEA22EE5285
:102E5000EF50E66E4AEC33F0E552EF0EE66E820E6E
:102E6000E66ECBEC33F0E552E5520A0EF36E0F0E30
:102E7000F3CFDBFF100EDB6A0F0EDBCF10F0DB06AB
:102E8000100EDBCF11F001E2DB061050111006E04E
:102E9000100EE66E26EC45F0E552EED7010EDB2A69
:102EA0009FD7120EE66E860EE66ECBEC33F0E5523F
:102EB000E5521AEF1DF0580E08012D5D04E00501E2
:102EC000EB0501E000D12CEC32F0E76E090EE7CF04
:102ED000DBFF2CEC32F0E76E0A0EE7CFDBFF010ED2
:102EE00008013B15106E0A0EDB50010B105C02E06E
:102EF0000A0EDB06010EDB6A040EDB6A0501E551F2
:102F0000F36E010EDBCFF4FFF350F45C01E3C1D0AC
:102F1000010EDB50040DF3CFE9FFF4CFEAFF000E02
:102F2000E926040EEA22EECF10F0EFCF11F0090EE1
:102F3000DB50101803E10A0EDB50111801E0A6D097
:102F40005B0EE66E64EC33F0E552010EDB50040DCF
:102F5000F3CFE9FFF4CFEAFF000EE926040EEA22E0
:102F6000020EE926000EEA22EE52EF50E66E64EC05
:102F700033F0E552010EDB50040DF3CFE9FFF4CF3F
:102F8000EAFF000EE926040EEA22020EE926000EF0
:102F9000EA22EF50E66E64EC33F0E552010EDB50AE
:102FA000060DF3CFE9FFF4CFEAFF650EE926040E24
:102FB000EA22EE52EE52EF50E66E64EC33F0E55248
:102FC000010EDB50060DF3CFE9FFF4CFEAFF650EEB
:102FD000E926040EEA22EE52EF50E66E64EC33F07E
:102FE000E552010EDB50060DF3CFE9FFF4CFEAFF07
:102FF000650EE926040EEA22EF50E66E64EC33F02B
:10300000E552010EDB50060DF3CFE9FFF4CFEAFFE6
:10301000650EE926040EEA22030EE926000EEA22D6
:10302000EE52EF50E66E64EC33F0E552010EDB50E9
:10303000060DF3CFE9FFF4CFEAFF650EE926040E93
:10304000EA22030EE926000EEA22EF50E66E64EC57
:1030500033F0E552010EDB50060DF3CFE9FFF4CF5C
:10306000EAFF650EE926040EEA22050EE926000EA7
:10307000EA22EF50E66E64EC33F0E552010EE5C54E
:10308000DBFF010EF36E040EF3CFDBFF010EDB2A34
:1030900035D7040EDB5016E15B0EE66E64EC33F0C0
:1030A000E552010EDB6A080EF36E010EDBCFF4FF72
:1030B000F350F45C07E2E66A64EC33F0E552010E8B
:1030C000DB2AF1D70AD1410E08012D5D01E005D1BF
:1030D000DB0EE66E820EE66ECBEC33F0E552E55287
:1030E000C30EE66E820EE66ECBEC33F0E552E5528F
:1030F00072EC32F0E76E090EE7CFDBFF72EC32F0D4
:10310000E76E0A0EE7CFDBFF010EDB6A040EDB6A17
:103110000501E551F36E010EDBCFF4FFF350F45CD3
:1031200001E38AD0010EDB50040DF3CFE9FFF4CFA9
:10313000EAFF000EE926040EEA22EECF10F0EFCFF0
:1031400011F0090EDB50101803E10A0EDB501118C4
:1031500070E1BD0EE66E820EE66ECBEC33F0E5520A
:10316000E552600EE66E000EE66E010EDB50040DB9
:10317000F3CFE9FFF4CFEAFF000EE926040EEA22BE
:10318000020EE926000EEA22EECFE6FFEFCFE6FFC1
:1031900021EC43F0E552E552E552E552600EE66E51
:1031A000000EE66E81EC33F0E552E552B80EE66EA5
:1031B000820EE66ECBEC33F0E552E5523DEC32F098
:1031C000E66ED950050FE96EDACFEAFFE552E75017
:1031D000EE6EED6AD950050FE96EDACFEAFFEE50D8
:1031E000ED1017E0010EDB50040DF3CFE9FFF4CF33
:1031F000EAFF000EE926040EEA22020EE926000E7E
:10320000EA22050EDBCFEEFF060EDBCFEDFFECEC86
:103210003DF0B20EE66E820EE66ECBEC33F0E55278
:10322000E552010EE5C5DBFF010EF36E040EF3CF90
:10323000DBFF010EDB2A6CD7040EDB504EE1A20E41
:10324000E66E820EE66ECBEC33F0E552E5523DECD5
:1032500032F0E66ED950050FE96EDACFEAFFE5529B
:10326000E750EE6EED6AD950050FE96EDACFEAFF4E
:10327000EE50ED102AE00501E52B010EDB50040DA8
:10328000F3CFE9FFF4CFEAFF000EE926040EEA22AD
:10329000090EDBCFEEFF0A0EDBCFEDFF010EDB5098
:1032A000040DF3CFE9FFF4CFEAFF000EE926040E88
:1032B000EA22020EE926000EEA22050EDBCFEEFF1F
:1032C000060EDBCFEDFFECEC3DF0B20EE66E820EAB
:1032D000E66ECBEC33F0E552E552ACD3010EDB6A7F
:1032E0000501E551F36E010EDBCFF4FFF350F45C02
:1032F0000FE2010EDB50060DF3CFE9FFF4CFEAFF3A
:10330000650EE926040EEA22EF9E010EDB2AE8D7BD
:1033100091D3580E08012D5D04E00501EB0501E095
:103320003FD22CEC32F0E76E090EE7CFDBFF2CEC3E
:1033300032F0E76E0A0EE7CFDBFF010E08013B1506
:10334000106E0A0EDB50010B105C02E00A0EDB0669
:103350002CEC32F0E76E010EE7CFDBFF2CEC32F005
:10336000E76E080EE7CFDBFF2CEC32F0E76E070EBE
:10337000E7CFDBFFD950070FE96EDACFEAFFB00ED7
:10338000D880EE54040EED540AE2B00EF36E070E30
:10339000F3CFDBFF040EF36E080EF3CFDBFFD95043
:1033A000090FE96EDACFEAFF000ED880EE54000E66
:1033B000ED5401E3F5D1010EDBCFE6FF090EDBCFC3
:1033C000E6FF0A0EDBCFE6FF87EC3EF0E552E55262
:1033D000E552010EDB50090801E056D108013A51CF
:1033E00007E10801030E3A6FE66A84EC3DF0E5520E
:1033F000040EDB6A0501E551F36E040EDBCFF4FF2A
:10340000F350F45C01E38CD0040EDB50040DF3CFD9
:10341000E9FFF4CFEAFF000EE926040EEA22EECF20
:1034200010F0EFCF11F0090EDB50101803E10A0E77
:10343000DB50111872E1040EDB50040DF3CFE9FFED
:10344000F4CFEAFF000EE926040EEA22020EE92676
:10345000000EEA22EECF10F0EFCF11F0070EDB5096
:10346000101803E1080EDB5011184DE0040EDB507C
:10347000040DF3CFE9FFF4CFEAFF000EE926040EB6
:10348000EA22020EE926000EEA22070EDBCFEEFF4B
:10349000080EDBCFEDFF040EE66E040EDB50040DCC
:1034A000F350200F010FE66EE66A040EDB50040DA8
:1034B000F3CF10F0F4CF11F0000E1026040E1122FD
:1034C00010C0E6FF11C0E6FF4BEC3DF0126E050E9A
:1034D000E15E12500A0EF36E110EF3CFDBFF120EF7
:1034E000DB6A110EDBCF10F0DB06120EDBCF11F022
:1034F00001E2DB061050111006E0100EE66E26EC1D
:1035000045F0E552EED76B0EE66E64EC33F0E55213
:10351000FA0EF36E040EF3CFDBFF040EDB2A6AD73C
:10352000040EDB500501E55D01E0ADD00501E52BA2
:10353000040EDB50040DF3CFE9FFF4CFEAFF000ED9
:10354000E926040EEA22090EDBCFEEFF0A0EDBCFDE
:10355000EDFF040EDB50040DF3CFE9FFF4CFEAFFDB
:10356000000EE926040EEA22020EE926000EEA22E7
:10357000070EDBCFEEFF080EDBCFEDFFE5C5E6FF64
:10358000200EE66EE66A0AEC44F0E552E552E5529A
:1035900007EC00F0040EE66E040EDB50040DF35051
:1035A000200F010FE66EE66A040EDB50040DF3CF28
:1035B00010F0F4CF11F0000E1026040E112210C0EE
:1035C000E6FF11C0E6FF4BEC3DF0126E050EE15E2A
:1035D0001250040EDB50060DF3CFE9FFF4CFEAFFE3
:1035E000650EE926040EEA22800EEF6E040EDB5013
:1035F000060DF3CFE9FFF4CFEAFF650EE926040ECE
:10360000EA22EE52EE6AED6A040EDB50060DF3CFAD
:10361000E9FFF4CFEAFF650EE926040EEA22030E65
:10362000E926000EEA22EE68ED68040EDB50060D76
:10363000F3CFE9FFF4CFEAFF650EE926040EEA2294
:10364000050EE926000EEA22EF6A0A0EF36E130E4B
:10365000F3CFDBFF140EDB6A130EDBCF10F0DB06BB
:10366000140EDBCF11F001E2DB061050111006E062
:10367000100EE66E26EC45F0E552EED76B0EE66EC8
:1036800064EC33F0E5528CD0010EDB50040801E00D
:1036900087D0040EDB6A0501E751F36E040EDBCF21
:1036A000F4FFF350F45C1EE2040EEA6ADB34FE0B16
:1036B000EA36E96E000EE926060EEA22EECF10F099
:1036C000EFCF11F0090EDB50101803E10A0EDB50AA
:1036D000111805E1FA0EF36E040EF3CFDBFF040EB2
:1036E000DB2AD9D7040EDB500501E75D59E105015E
:1036F000E72B040EEA6ADB34FE0BEA36E96E000EB5
:10370000E926060EEA22090EDBCFEEFF0A0EDBCF1A
:10371000EDFFE7C5E6FFC00EE66EE66A0AEC44F090
:10372000E552E552E55207EC00F0020EE66E040E9B
:10373000DB50E824C00F010FE66EE66A040E116A42
:10374000DB34FE0B1136106E000E1026060E112211
:1037500010C0E6FF11C0E6FF4BEC3DF0126E050E07
:10376000E15E12500A0EF36E150EF3CFDBFF160E5C
:10377000DB6A150EDBCF10F0DB06160EDBCF11F087
:1037800001E2DB061050111006E0100EE66E26EC8A
:1037900045F0E552EED76B0EE66E64EC33F0E55281
:1037A00049D1010EDB6A190EF36E010EDBCFF4FF77
:1037B000F350F45C5CE2010EDB50040DF3CFE9FF43
:1037C000F4CFEAFF000EE926040EEA22EE6AED6A63
:1037D000010EDB50040DF3CFE9FFF4CFEAFF000E3A
:1037E000E926040EEA22020EE926000EEA22EE6A1B
:1037F000ED6A010EDB50060DF3CFE9FFF4CFEAFFCF
:10380000650EE926040EEA22EF6A010EDB50060D72
:10381000F3CFE9FFF4CFEAFF650EE926040EEA22B2
:10382000EE52EE6AED6A010EDB50060DF3CFE9FFB2
:10383000F4CFEAFF650EE926040EEA22030EE9261C
:10384000000EEA22EE68ED68010EDB50060DF3CFA4
:10385000E9FFF4CFEAFF650EE926040EEA22050E21
:10386000E926000EEA22EF6A010EDB2A9CD7050149
:10387000E55102E0ECEC3DF00501E56B08013A5141
:1038800006E008013A6BE66A84EC3DF0E552010E71
:10389000DB6A190EF36E010EDBCFF4FFF350F45C1C
:1038A00048E2010EEA6ADB34FE0BEA36E96E000EEE
:1038B000E926060EEA22EE6AED6A010EDB50040DDF
:1038C000F3CFE9FFF4CFEAFF320EE926060EEA2233
:1038D000EF6A010EDB50040DF3CFE9FFF4CFEAFFEE
:1038E000320EE926060EEA22EE52EF6A010EDB5096
:1038F000040DF3CFE9FFF4CFEAFF320EE926060EFE
:10390000EA22020EE926000EEA22EF68010EDB50E1
:10391000040DF3CFE9FFF4CFEAFF320EE926060EDD
:10392000EA22030EE926000EEA22EF6A010EDB2AE4
:10393000B0D70501E75102E0B7EC3DF00501E76BB8
:10394000010EDB6A010EDB50106E116AD890115027
:1039500004E6800E105C000E115817E2010EEA6AB0
:10396000DB34FE0BEA36E96E000EE926010EEA2290
:10397000EE6AED6A010EDB50EA6A000FE96E070E8F
:10398000EA22EF6A010EDB2ADDD76B0EE66E64ECED
:1039900033F0E5524FD0010EDB6A190EF36E010EC3
:1039A000DBCFF4FFF350F45C3EE2010EDB50060D7A
:1039B000F3CFE9FFF4CFEAFF650EE926040EEA2211
:1039C000EF6A010EDB50060DF3CFE9FFF4CFEAFFFB
:1039D000650EE926040EEA22EE52EE6AED6A010E49
:1039E000DB50060DF3CFE9FFF4CFEAFF650EE926C1
:1039F000040EEA22030EE926000EEA22EE68ED68C4
:103A0000010EDB50060DF3CFE9FFF4CFEAFF650EA0
:103A1000E926040EEA22050EE926000EEA22EF6AE4
:103A2000010EDB2ABAD706D0450EE66E64EC33F001
:103A3000E55200D00501E96B18EF23F0580E08019C
:103A40002D5D03E00501EB0507E1DFCF3FF8050140
:103A5000140EE96F18EF23F0300EDF5C08E3DF503F
:103A6000390805E3300EDF5C0801256F21D0410ED7
:103A7000DF5C09E3DF50460806E3410EDF5C0A0F16
:103A80000801256F15D0610EDF5C09E3DF50660881
:103A900006E3610EDF5C0A0F0801256F09D0450EB1
:103AA000E66E64EC33F0E5520501E96B18EF23F0A4
:103AB000080127510CE0080125510801262726C8D6
:103AC0003FF80801276B0501140EE96F09D025C8DE
:103AD00026F808012639F00B266F0801010E276F22
:103AE00018EF23F0580E08012D5D03E00501EB05EA
:103AF00007E1DFCF40F80501150EE96F18EF23F05D
:103B0000300EDF5C08E3DF50390805E3300EDF5C80
:103B10000801256F21D0410EDF5C09E3DF50460824
:103B200006E3410EDF5C0A0F0801256F15D0610E18
:103B3000DF5C09E3DF50660806E3610EDF5C0A0F15
:103B40000801256F09D0450EE66E64EC33F0E552AE
:103B50000501E96B18EF23F0080127510CE008017B
:103B600025510801262726C840F80801276B0501C2
:103B7000150EE96F09D025C826F808012639F00B83
:103B8000266F0801010E276F18EF23F0580E080169
:103B90002D5D03E00501EB0538E1DFCFE6FF40C80E
:103BA000E6FF3FC8E6FF1CEC36F0E552E552E55271
:103BB000000909E10501ED5105E16B0EE66E64ECCB
:103BC00033F0E5521ED0DFCFE6FF40C8E6FF3FC826
:103BD000E6FF1CEC36F0E552E552E552000909E13A
:103BE0000501ED5105E16B0EE66E64EC33F0E55234
:103BF00008D00501ED5105E1450EE66E64EC33F0A9
:103C0000E5520501E96B18EF23F0300EDF5C08E3A5
:103C1000DF50390805E3300EDF5C0801256F21D045
:103C2000410EDF5C09E3DF50460806E3410EDF5C2E
:103C30000A0F0801256F15D0610EDF5C09E3DF5024
:103C4000660806E3610EDF5C0A0F0801256F09D0E4
:103C5000450EE66E64EC33F0E5520501E96B18EFB2
:103C600023F0080127513DE00801255108012627CE
:103C700026C8E6FF40C8E6FF3FC8E6FF1CEC36F06A
:103C8000E552E552E552000909E10501ED5105E172
:103C90006B0EE66E64EC33F0E5521ED026C8E6FFEC
:103CA00040C8E6FF3FC8E6FF1CEC36F0E552E5529F
:103CB000E552000909E10501ED5105E16B0EE66EE3
:103CC00064EC33F0E55208D00501ED5105E1450EF5
:103CD000E66E64EC33F0E5520801276B0501E96BF1
:103CE00009D025C826F808012639F00B266F0801EF
:103CF000010E276F18EF23F0580E08012D5D03E029
:103D00000501EB0507E1DFCF3FF80501170EE96F6D
:103D100018EF23F0300EDF5C08E3DF50390805E3CD
:103D2000300EDF5C0801256F21D0410EDF5C09E316
:103D3000DF50460806E3410EDF5C0A0F0801256FDD
:103D400015D0610EDF5C09E3DF50660806E3610E03
:103D5000DF5C0A0F0801256F09D0450EE66E64ECA2
:103D600033F0E5520501E96B18EF23F00801275104
:103D70000CE0080125510801262726C83FF8080154
:103D8000276B0501170EE96F09D025C826F8080131
:103D90002639F00B266F0801010E276F18EF23F06C
:103DA000580E08012D5D03E00501EB0507E1DFCFAB
:103DB00040F80501180EE96F18EF23F0300EDF5CB4
:103DC00008E3DF50390805E3300EDF5C0801256F9A
:103DD00021D0410EDF5C09E3DF50460806E3410EC7
:103DE000DF5C0A0F0801256F15D0610EDF5C09E367
:103DF000DF50660806E3610EDF5C0A0F0801256FDD
:103E000009D0450EE66E64EC33F0E5520501E96B2E
:103E100018EF23F0080127510CE008012551080193
:103E2000262726C840F80801276B0501180EE96F00
:103E300009D025C826F808012639F00B266F08019D
:103E4000010E276FF5D3580E08012D5D03E0050123
:103E5000EB0521E1DFCFE6FF40C8E6FF3FC8E6FF04
:103E6000D8EC37F0E552E552E552000909E10501C9
:103E7000ED5105E16B0EE66E64EC33F0E55208D0CF
:103E80000501ED5105E1450EE66E64EC33F0E552B7
:103E90000501E96BCDD3300EDF5C08E3DF50390854
:103EA00005E3300EDF5C0801256F20D0410EDF5C9A
:103EB00009E3DF50460806E3410EDF5C0A0F080104
:103EC000256F14D0610EDF5C09E3DF50660806E35E
:103ED000610EDF5C0A0F0801256F08D0450EE66E03
:103EE00064EC33F0E5520501E96BA2D308012751D8
:103EF00027E0080125510801262726C8E6FF40C80B
:103F0000E6FF3FC8E6FFD8EC37F0E552E552E55250
:103F1000000909E10501ED5105E16B0EE66E64EC67
:103F200033F0E55208D00501ED5105E1450EE66E8E
:103F300064EC33F0E5520801276B0501E96B09D009
:103F400025C826F808012639F00B266F0801010E56
:103F5000276F6ED3580E08012D5D07E0480E08014B
:103F60002D5D03E00501EB052EE108010B510B2B44
:103F7000EA6A0C0FE96E080EEA22DFCFEFFF0801B4
:103F80000A5108010B5D1EE3090E08010B5D0BE1F0
:103F900013C8E6FF10C8E6FF0FC8E6FF92EC2CF04E
:103FA000E552E552E5520BC8E6FF00EC3AF0E55267
:103FB0000501ED5105E16B0EE66E64EC33F0E55260
:103FC0000501E96B35D3300EDF5C08E3DF503908BB
:103FD00005E3300EDF5C0801256F54D0410EDF5C35
:103FE00009E3DF50460806E3410EDF5C0A0F0801D3
:103FF000256F48D0610EDF5C09E3DF50660806E3F9
:10400000610EDF5C0A0F0801256F3CD04B0EDF5CB0
:1040100031E108010B510B2BEA6A0C0FE96E080E17
:10402000EA2209C8EFFF08010A5108010B5D1EE3EF
:10403000090E08010B5D0BE113C8E6FF10C8E6FF8F
:104040000FC8E6FF92EC2CF0E552E552E5520BC8A2
:10405000E6FF00EC3AF0E5520501ED5105E16B0E8B
:10406000E66E64EC33F0E5520501E96B0801276B5D
:10407000DFD208D0450EE66E64EC33F0E552050160
:10408000E96BD6D20801275138E008012551080113
:10409000262708010B510B2BEA6A0C0FE96E080E5C
:1040A000EA2226C8EFFF080126510801091B080172
:1040B0000A5108010B5D1EE3090E08010B5D0BE1BF
:1040C00013C8E6FF10C8E6FF0FC8E6FF92EC2CF01D
:1040D000E552E552E5520BC8E6FF00EC3AF0E55236
:1040E0000501ED5105E16B0EE66E64EC33F0E5522F
:1040F0000501E96B0801276B09D025C826F80801DE
:104100002639F00B266F0801010E276F91D2580E49
:1041100008012D5D07E0480E08012D5D03E0050153
:10412000EB0508E1DFCF28F80501110EE96F080162
:10413000276B7ED2300EDF5C08E3DF50390805E3E1
:10414000300EDF5C0801286F20D0410EDF5C09E3F0
:10415000DF50460806E3410EDF5C0A0F0801286FB6
:1041600014D0610EDF5C09E3DF50660806E3610EE0
:10417000DF5C0A0F0801286F08D0450EE66E64EC7C
:1041800033F0E5520501E96B53D2800E0801282770
:104190000501110EE96F0801276B4AD2580E08017C
:1041A0002D5D07E0480E08012D5D03E00501EB05DC
:1041B00003E1DFCF29F83FD0300EDF5C08E3DF50AA
:1041C000390805E3300EDF5C0801256F20D0410E71
:1041D000DF5C09E3DF50460806E3410EDF5C0A0FAF
:1041E0000801256F14D0610EDF5C09E3DF5066081B
:1041F00006E3610EDF5C0A0F0801256F08D0450E4B
:10420000E66E64EC33F0E5520501E96B11D208016A
:10421000275107E0080125510801262726C829F85B
:104220000AD025C826F808012639F00B266F0801A8
:10423000010E276FFDD128C8E6FF29C8E6FF36C862
:10424000E6FF3DEC03F0E552E552E5520501ED5184
:1042500005E16B0EE66E64EC33F0E5520501E96BA7
:104260000801276BE5D1580E08012D5D03E005011B
:10427000EB0503E1DFCF80F73FD0300EDF5C08E3D2
:10428000DF50390805E3300EDF5C0801256F20D0D0
:10429000410EDF5C09E3DF50460806E3410EDF5CB8
:1042A0000A0F0801256F14D0610EDF5C09E3DF50AF
:1042B000660806E3610EDF5C0A0F0801256F08D06F
:1042C000450EE66E64EC33F0E5520501E96BB0D1C2
:1042D0000801275107E0080125510801262726C8B3
:1042E00080F70AD025C826F808012639F00B266F7A
:1042F0000801010E276F9CD1FF0E0701805D62E16E
:104300000701806B07018051106E116AD89011501F
:1043100004E6800E105C000E115817E20701805170
:10432000E96EEA6AD890E936EA36000EE926010E0F
:10433000EA22EE6AED6A07018051802BEA6A000FDB
:10434000E96E070EEA22EF6ADDD7010EDB6A05018E
:10435000E551F36E010EDBCFF4FFF350F45C2AE27B
:10436000010EDB50040DF3CFE9FFF4CFEAFF000E9E
:10437000E926040EEA22000ED880EE54000EED5419
:1043800016E2090EE66E010EDB50040DF3CFE9FFD5
:10439000F4CFEAFF000EE926040EEA22EECFE6FF94
:1043A000EFCFE6FF87EC3EF0E552E552E552010E15
:1043B000DB2ACDD70701806B0501E96B0801276B6C
:1043C00037D11DD007018051E96EEA6AD890E936ED
:1043D000EA36000EE926010EEA22EE52EF500FE116
:1043E00007018051106E116AD890115004E6800EBA
:1043F000105C000E115803E20701802BE3D7050182
:10440000EB0556E1F50EE66E64EC33F0E552440E32
:10441000E66E64EC33F0E55280C7E6FF64EC33F0FF
:10442000E55207018051106E116AD890115004E6D0
:10443000800E105C000E11582EE207018051E96ECB
:10444000EA6AD890E936EA36000EE926010EEA2239
:10445000EF50E66E64EC33F0E55207018051E96EEF
:10446000EA6AD890E936EA36000EE926010EEA2219
:10447000EE52EF50E66E64EC33F0E55207018051E6
:10448000EA6A000FE96E070EEA22EF50E66E64EC6E
:1044900033F0E5520CD0E66864EC33F0E552E668A0
:1044A00064EC33F0E552E66864EC33F0E552A5D0F5
:1044B000580E08012D5D51E1440EE66E64EC33F0B8
:1044C000E55280C7E6FF64EC33F0E5520701805106
:1044D000106E116AD890115004E6800E105C000E28
:1044E00011582EE207018051E96EEA6AD890E93648
:1044F000EA36000EE926010EEA22EF50E66E64EC81
:1045000033F0E55207018051E96EEA6AD890E93646
:10451000EA36000EE926010EEA22EE52EF50E66E70
:1045200064EC33F0E55207018051EA6A000FE96E4E
:10453000070EEA22EF50E66E64EC33F0E5520CD041
:10454000E66864EC33F0E552E66864EC33F0E5527B
:10455000E66864EC33F0E55250D0440EE66E64EC4D
:1045600033F0E55280C7E6FF4AEC33F0E55207012D
:104570008051106E116AD890115004E6800E105CC4
:10458000000E11582EE207018051E96EEA6AD890B8
:10459000E936EA36000EE926010EEA22EF50E66E11
:1045A0004AEC33F0E55207018051E96EEA6AD8908F
:1045B000E936EA36000EE926010EEA22EE52EF5005
:1045C000E66E4AEC33F0E55207018051EA6A000FCB
:1045D000E96E070EEA22EF50E66E4AEC33F0E55240
:1045E0000CD0E6684AEC33F0E552E6684AEC33F06A
:1045F000E552E6684AEC33F0E5520501E96B080143
:10460000276B16D0DF50720A01E006D0DDC5E6FF49
:1046100064EC33F0E55209D0DA0EE66E850EE66EF4
:10462000CBEC33F0E552E55200D00501E96B00D048
:10463000170EE15C02E2E16AE552E16EE552E7CF76
:10464000D9FF1200D9CFE6FFE1CFD9FF040EE12652
:104650000501E85105E0050EDE5D02E0050EDE6FA6
:104660009EA09AEF28F00801012B01511F0801E2DA
:10467000016B9E900051002B106E0501DE51D88019
:10468000105404E20801006B898201D0899208016C
:10469000032B030E3A5D01E0BED00351150801E380
:1046A000BAD0020E0501EA5D01E0B5D00801036B46
:1046B000DF6A0501E551DF5C17E2E651060DF3CF35
:1046C000E9FFF4CFEAFF650EE926040EEA22EF5077
:1046D000800B03E1E5C5DFFF06D0E62BE551E65D83
:1046E00001E3E66BDF2AE5D7E651060DF3CFE9FFDC
:1046F000F4CFEAFF650EE926040EEA22EF50800BA4
:1047000001E084D0E651060DF3CFE9FFF4CFEAFFD4
:10471000650EE926040EEA22EE52010EEECFDBFF13
:10472000020EEDCFDBFFD950010FE96EDACFEAFFC1
:10473000640EEC02F3CFEDFFEF02F3CFEEFFF45087
:10474000ED26E651040DF3CFE9FFF4CFEAFF000EAA
:10475000E926040EEA22EECF10F0EECF11F0EECFF4
:1047600012F0EFCF13F0D950010FE96EDACFEAFF64
:1047700012C00BF013C00CF0EECF06F0EDCF07F037
:1047800010EC45F006C0EEFF07C0EDFF0501EB059C
:1047900031E1F40EE66E64EC33F0E552750EE66E30
:1047A00064EC33F0E5520501E651040DF3CFE9FF67
:1047B000F4CFEAFF000EE926040EEA22EF50E66E7F
:1047C00064EC33F0E5520501E651040DF3CFE9FF47
:1047D000F4CFEAFF000EE926040EEA22EE52EF5073
:1047E000E66E64EC33F0E552010EDBCFE6FF64ECDD
:1047F00033F0E5520501E651060DF3CFE9FFF4CFA2
:10480000EAFF650EE926040EEA22EF8EE62BE5515B
:10481000E65D01E3E66B0801022B3A5101E165D246
:104820000251020801E361D2026B0401646B0501CD
:10483000E5510401645D01E358D26451060DF3CFE4
:10484000E9FFF4CFEAFF650EE926040EEA22EF50F5
:104850000F0B090801E0C9D06451060DF3CFE9FF41
:10486000F4CFEAFF650EE926040EEA22EE52000EAE
:10487000D880EE54000EED541AE26451060DF3CFC9
:10488000E9FFF4CFEAFF650EE926040EEA22EE52B4
:10489000EE06000EEF5A6451060DF3CFE9FFF4CF98
:1048A000EAFF650EE926040EEA22EF9E0FD064515E
:1048B000060DF3CFE9FFF4CFEAFF650EE926040EFB
:1048C000EA22050EE926000EEA22EF2A6451060DBF
:1048D000F3CFE9FFF4CFEAFF650EE926040EEA22E2
:1048E000030EE926000EEA22FF0EEE1802E1FF0E8B
:1048F000ED1801E179D06451060DF3CFE9FFF4CF53
:10490000EAFF650EE926040EEA22EE52EECF10F021
:10491000EFCF11F06451060DF3CFE9FFF4CFEAFFBA
:10492000650EE926040EEA22030EE926000EEA22AD
:10493000EECF12F0EFCF13F01050125C115013585D
:1049400053E308013A51020821E20A0EE66E04011F
:104950006451040DF3CFE9FFF4CFEAFF000EE9261E
:10496000040EEA22EE52EF50E66E6451040DF3CFCE
:10497000E9FFF4CFEAFF000EE926040EEA22EF5029
:10498000E66EAEEC39F0E552E552E55204016451B1
:10499000060DF3CFE9FFF4CFEAFF650EE926040E1A
:1049A000EA22030EE926000EEA22EE68ED68645161
:1049B000060DF3CFE9FFF4CFEAFF650EE926040EFA
:1049C000EA22F00EEF140009EF6E6451060DF3CFEA
:1049D000E9FFF4CFEAFF650EE926040EEA22050E90
:1049E000E926000EEA22EF6A1FD16451060DF3CFCB
:1049F000E9FFF4CFEAFF650EE926040EEA22EF5044
:104A00000F0B080801E0E3D06451060DF3CFE9FF76
:104A1000F4CFEAFF650EE926040EEA22EE52EECF4D
:104A200010F0EFCF11F06451040DF3CFE9FFF4CF94
:104A3000EAFF000EE926040EEA22020EE926000E25
:104A4000EA22EECF12F0EFCF13F01250105C1350A9
:104A5000115803E308013A051BE104016451060DF6
:104A6000F3CFE9FFF4CFEAFF650EE926040EEA2250
:104A7000EE52EE2A000EEF226451060DF3CFE9FF4D
:104A8000F4CFEAFF650EE926040EEA22EF9E10D06D
:104A900004016451060DF3CFE9FFF4CFEAFF650E80
:104AA000E926040EEA22050EE926000EEA22EF2A84
:104AB0006451060DF3CFE9FFF4CFEAFF650EE92656
:104AC000040EEA22030EE926000EEA22FF0EEE187B
:104AD00002E1FF0EED1801E179D06451060DF3CF2C
:104AE000E9FFF4CFEAFF650EE926040EEA22EE5252
:104AF000EECF10F0EFCF11F06451060DF3CFE9FFC8
:104B0000F4CFEAFF650EE926040EEA22030EE92639
:104B1000000EEA22EECF12F0EFCF13F01250105C2D
:104B20001350115853E308013A51020821E20A0ECA
:104B3000E66E04016451040DF3CFE9FFF4CFEAFF00
:104B4000000EE926040EEA22EE52EF50E66E6451A2
:104B5000040DF3CFE9FFF4CFEAFF000EE926040EBF
:104B6000EA22EF50E66EAEEC39F0E552E552E5523E
:104B700004016451060DF3CFE9FFF4CFEAFF650E9F
:104B8000E926040EEA22030EE926000EEA22EE6868
:104B9000ED686451060DF3CFE9FFF4CFEAFF650E2F
:104BA000E926040EEA22F00EEF140009EF6E6451BC
:104BB000060DF3CFE9FFF4CFEAFF650EE926040EF8
:104BC000EA22050EE926000EEA22EF6A2DD0645192
:104BD000060DF3CFE9FFF4CFEAFF650EE926040ED8
:104BE000EA22050EE926000EEA22EF6A6451060D5C
:104BF000F3CFE9FFF4CFEAFF650EE926040EEA22BF
:104C0000030EE926000EEA22EE68ED686451060DF7
:104C1000F3CFE9FFF4CFEAFF650EE926040EEA229E
:104C2000F00EEF140009EF6E6451060DF3CFE9FFAB
:104C3000F4CFEAFF650EE926040EEA22050EE92606
:104C4000000EEA22EF5032084DE26451060DF3CF18
:104C5000E9FFF4CFEAFF650EE926040EEA22050E0D
:104C6000E926000EEA22EF6A6451060DF3CFE9FF50
:104C7000F4CFEAFF650EE926040EEA22030EE926C8
:104C8000000EEA22EE68ED686451060DF3CFE9FFED
:104C9000F4CFEAFF650EE926040EEA22F00EEF14C7
:104CA0000009EF6E0A0EE66E6451040DF3CFE9FFC2
:104CB000F4CFEAFF000EE926040EEA22EE52EF508E
:104CC000E66E6451040DF3CFE9FFF4CFEAFF000E66
:104CD000E926040EEA22EF50E66EAEEC39F0E5521A
:104CE000E552E5520401642BA2D50601966B05013D
:104CF000E7510601965D01E31DD29651040DF3CFF5
:104D0000E9FFF4CFEAFF320EE926060EEA22EF5061
:104D10000F0B010801E0B6D09651040DF3CFE9FF67
:104D2000F4CFEAFF320EE926060EEA22EE52EF50E9
:104D3000000818E29651040DF3CFE9FFF4CFEAFF23
:104D4000320EE926060EEA22EE52EF069651040DC7
:104D5000F3CFE9FFF4CFEAFF320EE926060EEA228E
:104D6000EF9E0FD09651040DF3CFE9FFF4CFEAFF89
:104D7000320EE926060EEA22030EE926000EEA228A
:104D8000EF2A9651040DF3CFE9FFF4CFEAFF320E7C
:104D9000E926060EEA22020EE926000EEA22EF506C
:104DA000FF086FE09651040DF3CFE9FFF4CFEAFF5F
:104DB000320EE926060EEA22EE52EFCF10F096519F
:104DC000040DF3CFE9FFF4CFEAFF320EE926060E19
:104DD000EA22020EE926000EEA22EF50D880105493
:104DE00050E3E66A9651E96EEA6AD890E936EA3607
:104DF000000EE926060EEA22EE52EF50E66E9651BC
:104E0000E96EEA6AD890E936EA36000EE926060E1F
:104E1000EA22EF50E66EA0EC37F0E552E552E5529B
:104E200006019651040DF3CFE9FFF4CFEAFF320EED
:104E3000E926060EEA22020EE926000EEA22EF68B3
:104E40009651040DF3CFE9FFF4CFEAFF320EE926C5
:104E5000060EEA22F00EEF140009EF6E9651040DD3
:104E6000F3CFE9FFF4CFEAFF320EE926060EEA227D
:104E7000030EE926000EEA22EF6A96C6E6FF64D921
:104E8000E552F3D09651040DF3CFE9FFF4CFEAFFDA
:104E9000320EE926060EEA22EF500F0B090801E058
:104EA000B8D09651040DF3CFE9FFF4CFEAFF320EEC
:104EB000E926060EEA22EE52EFCF10F07D0E105CCE
:104EC00018E29651040DF3CFE9FFF4CFEAFF320E5A
:104ED000E926060EEA22EE52EF2A9651040DF3CF90
:104EE000E9FFF4CFEAFF320EE926060EEA22EF9E32
:104EF0000FD09651040DF3CFE9FFF4CFEAFF320E45
:104F0000E926060EEA22030EE926000EEA22EF2A1F
:104F10009651040DF3CFE9FFF4CFEAFF320EE926F4
:104F2000060EEA22020EE926000EEA22EF50FF08E2
:104F30006FE09651040DF3CFE9FFF4CFEAFF320E94
:104F4000E926060EEA22EE52EFCF10F09651040D3C
:104F5000F3CFE9FFF4CFEAFF320EE926060EEA228C
:104F6000020EE926000EEA22EF50105C51E3080E13
:104F7000E66E9651E96EEA6AD890E936EA36000E96
:104F8000E926060EEA22EE52EF50E66E9651E96EE1
:104F9000EA6AD890E936EA36000EE926060EEA22D9
:104FA000EF50E66EA0EC37F0E552E552E55206010F
:104FB0009651040DF3CFE9FFF4CFEAFF320EE92654
:104FC000060EEA22020EE926000EEA22EF6896514A
:104FD000040DF3CFE9FFF4CFEAFF320EE926060E07
:104FE000EA22F00EEF140009EF6E9651040DF3CF94
:104FF000E9FFF4CFEAFF320EE926060EEA22030E9D
:10500000E926000EEA22EF6A96C6E6FF9DD8E55231
:105010002CD09651040DF3CFE9FFF4CFEAFF320E06
:10502000E926060EEA22030EE926000EEA22EF6ABE
:105030009651040DF3CFE9FFF4CFEAFF320EE926D3
:10504000060EEA22020EE926000EEA22EF689651C9
:10505000040DF3CFE9FFF4CFEAFF320EE926060E86
:10506000EA22F00EEF140009EF6E06019651040DCE
:10507000F3CFE9FFF4CFEAFF320EE926060EEA226B
:10508000030EE926000EEA22EF50320850E2965154
:10509000040DF3CFE9FFF4CFEAFF320EE926060E46
:1050A000EA22030EE926000EEA22EF6A9651040D69
:1050B000F3CFE9FFF4CFEAFF320EE926060EEA222B
:1050C000020EE926000EEA22EF689651040DF3CF96
:1050D000E9FFF4CFEAFF320EE926060EEA22F00ECF
:1050E000EF140009EF6E080EE66E9651E96EEA6A5B
:1050F000D890E936EA36000EE926060EEA22EE528C
:10510000EF50E66E9651E96EEA6AD890E936EA36D3
:10511000000EE926060EEA22EF50E66EA0EC37F00C
:10512000E552E552E55296C6E6FF0ED8E552060175
:10513000962BDDD5040EE15C02E2E16AE552E16EF8
:10514000E552E7CFD9FF1200D9CFE6FFE1CFD9FF73
:10515000030EE126FE0EDB50040DF3CFE9FFF4CF82
:10516000EAFF320EE926060EEA22EE52EF50DE6E1C
:10517000DD6AD9CFE9FFDACFEAFFFF0EEC02F3CF09
:10518000EDFFEF02F3CFEEFFF450ED26D9CFE9FFAC
:10519000DACFEAFF7D0E0B6E0C6AEECF06F0EDCF94
:1051A00007F010EC45F006C0EEFF07C0EDFFD9CFC9
:1051B000E9FFDACFEAFFFE0ED880EE54000EED5480
:1051C00003E2FE0EDE6EDD6A0501EB052EE1F40E54
:1051D000E66E64EC33F0E5526D0EE66E64EC33F08F
:1051E000E552FE0EEA6ADB34FE0BEA36E96E000E8B
:1051F000E926060EEA22EF50E66E64EC33F0E55243
:10520000FE0EEA6ADB34FE0BEA36E96E000EE92692
:10521000060EEA22EE52EF50E66E64EC33F0E552F1
:10522000DFCFE6FF64EC33F0E552FE0EDB50040DF9
:10523000F3CFE9FFF4CFEAFF320EE926060EEA22A9
:10524000EF8E030EE15C02E2E16AE552E16EE552A7
:10525000E7CFD9FF1200D9CFE6FFE1CFD9FF050E86
:10526000E126040EDB680501B351190DF3CFE9FF08
:10527000F4CFEAFF000EE926050EEA22010EEFCF79
:10528000DBFFF36E030EF3CFDBFF010EDB0414E153
:10529000B351190DF3CFE9FFF4CFEAFF000EE92671
:1052A000050EEA22010EE926000EEA22EF50FF0861
:1052B00003E1030EDB6A5DD0010EDB50020825E13D
:1052C000B351190DF3CFE9FFF4CFEAFF000EE92641
:1052D000050EEA22010EE926000EEA22EF50FF0831
:1052E00014E1B351190DF3CFE9FFF4CFEAFF000E3B
:1052F000E926050EEA22020EE926000EEA22EF5008
:10530000FF0803E1030EDB6A34D0010EDB50060810
:1053100030E2040E0501EA5D2CE0010EDF6E010EA5
:10532000DB50D880DF541CE30501B351190DF3CFD6
:1053300010F0F4CF11F0000E1026050E1122DF50F0
:105340000F011024E96E000E1120EA6E040EDBCF6F
:10535000E7FFEF50E71A040EE7CFDBFFDF2ADFD7C6
:10536000040EDB5006E00501E32B000EE423030EE0
:10537000DB6A08012EA517D0010EDB50020813E2EC
:105380000501B351190DF3CFE9FFF4CFEAFF000E89
:10539000E926050EEA22030EE926000EEA22EF5066
:1053A00002E0030EDB6A08012EA317D0010EDB0416
:1053B00014E10501B351190DF3CFE9FFF4CFEAFF72
:1053C000000EE926050EEA22010EE926000EEA2269
:1053D000EF50CC0802E1030EDB6A010E08012E1526
:1053E0004CE02B510501B35D48E0FF0E08012B5D39
:1053F00044E0010EDF6E020EDB6ADBCF10F0010E1F
:10540000DB50D880105435E30501B351190DF3CFAB
:1054100011F0F4CF12F0000E1126050E1222020E2A
:10542000DB500F011124E96E000E1220EA6EEFCF5F
:1054300010F02BC813F0146A13BE1468190E14026E
:10544000F3CF14F01302F3CF13F0F4501426000E30
:105450001326050E1422020EDB501324E96E000EF3
:105460001420EA6EEF50105C01E0DF6A020EDB2AC6
:10547000C4D7DF5002E0030EDB6A030EDB50106E70
:10548000050EE15C03E200D0E16AE552E16E1050E6
:10549000E552E7CFD9FF1200D9CFE6FFE1CFD9FF20
:1054A000050EE126030EDB6A0501B2510501B35D6D
:1054B00001E126D2D0DE000901E11FD2B3C52BF8ED
:1054C0000501B351190DF3CFE9FFF4CFEAFF000E48
:1054D000E926050EEA22EF50030831E2B351190D17
:1054E000F3CFE9FFF4CFEAFF000EE926050EEA222A
:1054F000010EE926000EEA22EF5021E0B351190D0A
:10550000F3CFE9FFF4CFEAFF000EE926050EEA2209
:10551000010EE926000EEA22EF50FF0810E0B35119
:10552000190DF3CFE9FFF4CFEAFF000EE926050ECF
:10553000EA22010EE926000EEA22EFCF37F8050134
:10554000EA0509E1B0EC03F0010EF36E030EF3CFB0
:10555000DBFF0501EA6B020EEA5D03E0050EEA5D82
:1055600013E1EB0503E1A2EC04F009D0410E0801C0
:105570002D5D03E15BEC02F002D0B0EC03F0010E14
:10558000F36E030EF3CFDBFF040E0501EA5D04E0CA
:10559000050EEA5D01E0EFD00501B351190DF3CF1F
:1055A000E9FFF4CFEAFF000EE926050EEA22EF50EC
:1055B000080801E09FD0B351190DF3CFE9FFF4CFF4
:1055C000EAFF000EE926050EEA22010EE926000E8A
:1055D000EA22EF5008010C5D01E08CD00501B351C7
:1055E000190DF3CFE9FFF4CFEAFF000EE926050E0F
:1055F000EA22020EE926000EEA22EF5008010D5DB4
:1056000001E078D00501B351190DF3CFE9FFF4CFD4
:10561000EAFF000EE926050EEA22030EE926000E37
:10562000EA22EF5008010E5D65E10501B351190D45
:10563000F3CFE9FFF4CFEAFF000EE926050EEA22D8
:10564000040EE926000EEA22EF5008010F5D52E138
:105650000501B351190DF3CFE9FFF4CFEAFF000EB6
:10566000E926050EEA22050EE926000EEA22EF5091
:105670000801105D3FE10501B351190DF3CFE9FFBA
:10568000F4CFEAFF000EE926050EEA22060EE9260F
:10569000000EEA22EF500801115D2CE10501B35123
:1056A000190DF3CFE9FFF4CFEAFF000EE926050E4E
:1056B000EA22070EE926000EEA22EF500801125DE9
:1056C00019E10501B351190DF3CFE9FFF4CFEAFF5A
:1056D000000EE926050EEA22080EE926000EEA224F
:1056E000EF500801135D06E16B0EE66E64EC33F0DB
:1056F000E55218D04E0EE66E64EC33F0E552410EE2
:1057000008012D5D02E15BEC02F00801076B086BFC
:10571000910EE66E820EE66ECBEC33F0E552E5526A
:105720000501EA6B08010C2B0D070E2B0F07102B40
:105730001107122B1307080EE66E00EC3AF0E55243
:105740002E0EE66E64EC33F0E55208010707000EFA
:10575000085B075108110AE10501EA6B840EE66E49
:10576000820EE66ECBEC33F0E552E552010EF36E9D
:10577000030EF3CFDBFF030E0501EA5D48E10501EF
:10578000B351190DF3CFE9FFF4CFEAFF000EE9267C
:10579000050EEA22010EEFCFDBFFDF6E020EDB6AA1
:1057A000010EDB50F36E020EDBCFF4FFF350F45C1E
:1057B00023E20501B351190DF3CF10F0F4CF11F02E
:1057C000000E1026050E1122DF50DF2A0F011024D3
:1057D000E96E000E1120EA6EEF50E66E020EDBCF8E
:1057E000F3FFDB2AF350EA6A0C0FE96E080EEA2297
:1057F000E552E750EF6ED4D7010EDBCFE6FF00ECA9
:105800003AF0E552010EF36E030EF3CFDBFF050114
:10581000B351190DF3CFE9FFF4CFEAFF000EE926EB
:10582000050EEA22EF50090855E1B351190DF3CFE7
:10583000E9FFF4CFEAFF000EE926050EEA22060E84
:10584000E926000EEA22EF50E10844E1B351190DB8
:10585000F3CFE9FFF4CFEAFF000EE926050EEA22B6
:10586000070EE926000EEA22EF5034E1B351190D7C
:10587000F3CFE9FFF4CFEAFF000EE926050EEA2296
:10588000080EE926000EEA22EF50E66EB351190D1C
:10589000F3CFE9FFF4CFEAFF000EE926050EEA2276
:1058A000050EE926000EEA22EF50E66EB351190DFF
:1058B000F3CFE9FFF4CFEAFF000EE926050EEA2256
:1058C000040EE926000EEA22EF50E66E2BD8E552D0
:1058D000E552E5521F0E0501E95D09E1B0EC03F068
:1058E000010EF36E030EF3CFDBFF0501E96B030E30
:1058F000DB5002E04BEC02F002D04BEC02F008D09F
:105900001F0E0501E95D04E1B0EC03F00501E96B50
:10591000050EE15C02E2E16AE552E16EE552E7CF95
:10592000D9FF1200D9CFE6FFE1CFD9FF040EE1265F
:1059300008013A050EE1FC0EDBCFE6FFFD0EDBCFE2
:10594000E6FFFE0EDBCFE6FFA5D9E552E552E552B4
:1059500097D1FE0EDB50E76E010EE7CFDBFFFD0EA9
:10596000DB50E76E020EE7CFDBFF010E3B15106E3A
:10597000FD0EDB50010B105C5AE1FC0EDB50800881
:1059800004E0FC0EDB50810851E13A514FE0040184
:10599000646B0501E5510401645D48E26451040D46
:1059A000F3CFE9FFF4CFEAFF000EE926040EEA2266
:1059B000EECF10F0EFCF11F0010EDB50101803E125
:1059C000020EDB50111830E16451060DF3CFE9FFF0
:1059D000F4CFEAFF650EE926040EEA22F00EEF147A
:1059E0000009EF6E6451060DF3CFE9FFF4CFEAFF33
:1059F000650EE926040EEA22050EE926000EEA22CB
:105A0000EF6A6451060DF3CFE9FFF4CFEAFF650EAC
:105A1000E926040EEA22030EE926000EEA22EE68C9
:105A2000ED68E5C564F401D0642BB3D729D1020E2B
:105A3000DB06FC0EDB50880804E0FC0EDB50890816
:105A40005DE10601966B0501E7510601965D55E2A1
:105A50009651E96EEA6AD890E936EA36000EE926F0
:105A6000060EEA22EECF10F0EFCF11F0010EDB5060
:105A7000101803E1020EDB5011183DE19651040DA0
:105A8000F3CFE9FFF4CFEAFF320EE926060EEA2251
:105A9000EF500F0B00092CE1FC0EDB5089080DE1E3
:105AA0009651040DF3CFE9FFF4CFEAFF320EE92659
:105AB000060EEA22090EEF6E0CD09651040DF3CFBC
